{
  "_format": "hh-sol-artifact-1",
  "contractName": "InstitutionRegistry",
  "sourceName": "contracts/InstitutionRegistry.sol",
  "abi": [
    {
      "inputs": [],
      "stateMutability": "nonpayable",
      "type": "constructor"
    },
    {
      "inputs": [],
      "name": "AlreadyRegistered",
      "type": "error"
    },
    {
      "inputs": [],
      "name": "NotAdmin",
      "type": "error"
    },
    {
      "inputs": [],
      "name": "NotRegistered",
      "type": "error"
    },
    {
      "inputs": [],
      "name": "StringTooLong",
      "type": "error"
    },
    {
      "inputs": [],
      "name": "ZeroAddress",
      "type": "error"
    },
    {
      "anonymous": false,
      "inputs": [
        {
          "indexed": true,
          "internalType": "address",
          "name": "addr",
          "type": "address"
        },
        {
          "indexed": false,
          "internalType": "string",
          "name": "name",
          "type": "string"
        },
        {
          "indexed": false,
          "internalType": "enum InstitutionRegistry.Role",
          "name": "role",
          "type": "uint8"
        }
      ],
      "name": "InstitutionAdded",
      "type": "event"
    },
    {
      "anonymous": false,
      "inputs": [
        {
          "indexed": true,
          "internalType": "address",
          "name": "addr",
          "type": "address"
        }
      ],
      "name": "InstitutionDeactivated",
      "type": "event"
    },
    {
      "inputs": [],
      "name": "MAX_NAME_LENGTH",
      "outputs": [
        {
          "internalType": "uint256",
          "name": "",
          "type": "uint256"
        }
      ],
      "stateMutability": "view",
      "type": "function"
    },
    {
      "inputs": [
        {
          "internalType": "address",
          "name": "addr",
          "type": "address"
        },
        {
          "internalType": "string",
          "name": "name",
          "type": "string"
        },
        {
          "internalType": "enum InstitutionRegistry.Role",
          "name": "role",
          "type": "uint8"
        }
      ],
      "name": "addInstitution",
      "outputs": [],
      "stateMutability": "nonpayable",
      "type": "function"
    },
    {
      "inputs": [],
      "name": "admin",
      "outputs": [
        {
          "internalType": "address",
          "name": "",
          "type": "address"
        }
      ],
      "stateMutability": "view",
      "type": "function"
    },
    {
      "inputs": [
        {
          "internalType": "address",
          "name": "addr",
          "type": "address"
        }
      ],
      "name": "deactivate",
      "outputs": [],
      "stateMutability": "nonpayable",
      "type": "function"
    },
    {
      "inputs": [],
      "name": "getAll",
      "outputs": [
        {
          "internalType": "address[]",
          "name": "",
          "type": "address[]"
        }
      ],
      "stateMutability": "view",
      "type": "function"
    },
    {
      "inputs": [
        {
          "internalType": "uint256",
          "name": "",
          "type": "uint256"
        }
      ],
      "name": "institutionList",
      "outputs": [
        {
          "internalType": "address",
          "name": "",
          "type": "address"
        }
      ],
      "stateMutability": "view",
      "type": "function"
    },
    {
      "inputs": [
        {
          "internalType": "address",
          "name": "",
          "type": "address"
        }
      ],
      "name": "institutions",
      "outputs": [
        {
          "internalType": "string",
          "name": "name",
          "type": "string"
        },
        {
          "internalType": "enum InstitutionRegistry.Role",
          "name": "role",
          "type": "uint8"
        },
        {
          "internalType": "bool",
          "name": "active",
          "type": "bool"
        },
        {
          "internalType": "uint256",
          "name": "joinedAt",
          "type": "uint256"
        }
      ],
      "stateMutability": "view",
      "type": "function"
    },
    {
      "inputs": [
        {
          "internalType": "address",
          "name": "addr",
          "type": "address"
        }
      ],
      "name": "isIssuer",
      "outputs": [
        {
          "internalType": "bool",
          "name": "",
          "type": "bool"
        }
      ],
      "stateMutability": "view",
      "type": "function"
    },
    {
      "inputs": [
        {
          "internalType": "address",
          "name": "addr",
          "type": "address"
        }
      ],
      "name": "isVerifier",
      "outputs": [
        {
          "internalType": "bool",
          "name": "",
          "type": "bool"
        }
      ],
      "stateMutability": "view",
      "type": "function"
    }
  ],
  "bytecode": "0x608060405234801561001057600080fd5b50600080546001600160a01b03191633179055610c2c806100326000396000f3fe608060405234801561001057600080fd5b50600436106100935760003560e01c8063860749851161006657806386074985146100fd578063877b9a6714610113578063b2d9767f14610126578063ebc26ac814610149578063f851a4401461017457600080fd5b806333105218146100985780633ea053eb146100c057806353ed5143146100d557806378d5e6cc146100ea575b600080fd5b6100ab6100a636600461089b565b610187565b60405190151581526020015b60405180910390f35b6100d36100ce36600461089b565b6102dd565b005b6100dd610399565b6040516100b791906108b6565b6100d36100f8366004610903565b6103fb565b610105608081565b6040519081526020016100b7565b6100ab61012136600461089b565b610682565b61013961013436600461089b565b61079e565b6040516100b794939291906109d5565b61015c610157366004610a3c565b610855565b6040516001600160a01b0390911681526020016100b7565b60005461015c906001600160a01b031681565b6001600160a01b038116600090815260016020526040808220815160808101909252805483929190829082906101bc90610a55565b80601f01602080910402602001604051908101604052809291908181526020018280546101e890610a55565b80156102355780601f1061020a57610100808354040283529160200191610235565b820191906000526020600020905b81548152906001019060200180831161021857829003601f168201915b5050509183525050600182015460209091019060ff16600381111561025c5761025c61099d565b600381111561026d5761026d61099d565b81526001820154610100900460ff161515602082015260029091015460409182015281015190915080156102d6575060025b816020015160038111156102b5576102b561099d565b14806102d657506003816020015160038111156102d4576102d461099d565b145b9392505050565b6000546001600160a01b0316331461030857604051637bfa4b9f60e01b815260040160405180910390fd5b6001600160a01b03811660009081526001602081905260409091200154610100900460ff1661034a5760405163aba4733960e01b815260040160405180910390fd5b6001600160a01b0381166000818152600160208190526040808320909101805461ff0019169055517f805426965bf84411d1252c51430c8a578c088f2ee694e93ac6ac88104fb1dae49190a250565b606060028054806020026020016040519081016040528092919081815260200182805480156103f157602002820191906000526020600020905b81546001600160a01b031681526001909101906020018083116103d3575b5050505050905090565b6000546001600160a01b0316331461042657604051637bfa4b9f60e01b815260040160405180910390fd5b6001600160a01b03841661044d5760405163d92e233d60e01b815260040160405180910390fd5b81158061045a5750608082115b1561047857604051631623655b60e31b815260040160405180910390fd5b6001600160a01b03841660009081526001602081905260409091200154610100900460ff16156104bb57604051630ea075bf60e21b815260040160405180910390fd5b6001600160a01b03841660009081526001602090815260409182902060020154825160a0601f870184900490930281018301909352608083018581529015929182919087908790819085018382808284376000920191909152505050908252506020018360038111156105305761053061099d565b81526001602082015260400182610562576001600160a01b038716600090815260016020526040902060020154610564565b425b90526001600160a01b03861660009081526001602052604090208151819061058c9082610af6565b50602082015160018083018054909160ff19909116908360038111156105b4576105b461099d565b021790555060408201516001820180549115156101000261ff0019909216919091179055606090910151600290910155801561063657600280546001810182556000919091527f405787fa12a823e0f2b7631cc41b3ba8828b3321ca811111fa75cd3aa3bb5ace0180546001600160a01b0319166001600160a01b0387161790555b846001600160a01b03167fa57d7a4072db27c5901c0aade97b8427d18e04a02e93c8d582480d6f4300969485858560405161067393929190610bb6565b60405180910390a25050505050565b6001600160a01b038116600090815260016020526040808220815160808101909252805483929190829082906106b790610a55565b80601f01602080910402602001604051908101604052809291908181526020018280546106e390610a55565b80156107305780601f1061070557610100808354040283529160200191610730565b820191906000526020600020905b81548152906001019060200180831161071357829003601f168201915b5050509183525050600182015460209091019060ff1660038111156107575761075761099d565b60038111156107685761076861099d565b81526001820154610100900460ff161515602082015260029091015460409182015281015190915080156102d65750600161029f565b6001602052600090815260409020805481906107b990610a55565b80601f01602080910402602001604051908101604052809291908181526020018280546107e590610a55565b80156108325780601f1061080757610100808354040283529160200191610832565b820191906000526020600020905b81548152906001019060200180831161081557829003601f168201915b505050506001830154600290930154919260ff8082169361010090920416915084565b6002818154811061086557600080fd5b6000918252602090912001546001600160a01b0316905081565b80356001600160a01b038116811461089657600080fd5b919050565b6000602082840312156108ad57600080fd5b6102d68261087f565b6020808252825182820181905260009190848201906040850190845b818110156108f75783516001600160a01b0316835292840192918401916001016108d2565b50909695505050505050565b6000806000806060858703121561091957600080fd5b6109228561087f565b9350602085013567ffffffffffffffff8082111561093f57600080fd5b818701915087601f83011261095357600080fd5b81358181111561096257600080fd5b88602082850101111561097457600080fd5b60208301955080945050505060408501356004811061099257600080fd5b939692955090935050565b634e487b7160e01b600052602160045260246000fd5b600481106109d157634e487b7160e01b600052602160045260246000fd5b9052565b608081526000855180608084015260005b81811015610a0357602081890181015160a08684010152016109e6565b50600060a0828501015260a0601f19601f830116840101915050610a2a60208301866109b3565b92151560408201526060015292915050565b600060208284031215610a4e57600080fd5b5035919050565b600181811c90821680610a6957607f821691505b602082108103610a8957634e487b7160e01b600052602260045260246000fd5b50919050565b634e487b7160e01b600052604160045260246000fd5b601f821115610af1576000816000526020600020601f850160051c81016020861015610ace5750805b601f850160051c820191505b81811015610aed57828155600101610ada565b5050505b505050565b815167ffffffffffffffff811115610b1057610b10610a8f565b610b2481610b1e8454610a55565b84610aa5565b602080601f831160018114610b595760008415610b415750858301515b600019600386901b1c1916600185901b178555610aed565b600085815260208120601f198616915b82811015610b8857888601518255948401946001909101908401610b69565b5085821015610ba65787850151600019600388901b60f8161c191681555b5050505050600190811b01905550565b604081528260408201528284606083013760006060848301015260006060601f19601f8601168301019050610bee60208301846109b3565b94935050505056fea26469706673582212200353f2b26b01131d6d34d5c1b0975255d2e440b3b2b9666c37da9649f1f3a88964736f6c63430008180033",
  "linkReferences": {},
  "deployedLinkReferences": {}
}