{
  "_format": "hh-sol-artifact-1",
  "contractName": "InstitutionRegistry",
  "sourceName": "contracts/InstitutionRegistry.sol",
  "abi": [
    {
      "inputs": [],
      "stateMutability": "nonpayable",
      "type": "constructor"
    },
    {
      "anonymous": false,
      "inputs": [
        {
          "indexed": true,
          "internalType": "address",
          "name": "addr",
          "type": "address"
        },
        {
          "indexed": false,
          "internalType": "string",
          "name": "name",
          "type": "string"
        },
        {
          "indexed": false,
          "internalType": "enum InstitutionRegistry.Role",
          "name": "role",
          "type": "uint8"
        }
      ],
      "name": "InstitutionAdded",
      "type": "event"
    },
    {
      "anonymous": false,
      "inputs": [
        {
          "indexed": true,
          "internalType": "address",
          "name": "addr",
          "type": "address"
        }
      ],
      "name": "InstitutionDeactivated",
      "type": "event"
    },
    {
      "inputs": [
        {
          "internalType": "address",
          "name": "addr",
          "type": "address"
        },
        {
          "internalType": "string",
          "name": "name",
          "type": "string"
        },
        {
          "internalType": "enum InstitutionRegistry.Role",
          "name": "role",
          "type": "uint8"
        }
      ],
      "name": "addInstitution",
      "outputs": [],
      "stateMutability": "nonpayable",
      "type": "function"
    },
    {
      "inputs": [],
      "name": "admin",
      "outputs": [
        {
          "internalType": "address",
          "name": "",
          "type": "address"
        }
      ],
      "stateMutability": "view",
      "type": "function"
    },
    {
      "inputs": [
        {
          "internalType": "address",
          "name": "addr",
          "type": "address"
        }
      ],
      "name": "deactivate",
      "outputs": [],
      "stateMutability": "nonpayable",
      "type": "function"
    },
    {
      "inputs": [],
      "name": "getAll",
      "outputs": [
        {
          "internalType": "address[]",
          "name": "",
          "type": "address[]"
        }
      ],
      "stateMutability": "view",
      "type": "function"
    },
    {
      "inputs": [
        {
          "internalType": "uint256",
          "name": "",
          "type": "uint256"
        }
      ],
      "name": "institutionList",
      "outputs": [
        {
          "internalType": "address",
          "name": "",
          "type": "address"
        }
      ],
      "stateMutability": "view",
      "type": "function"
    },
    {
      "inputs": [
        {
          "internalType": "address",
          "name": "",
          "type": "address"
        }
      ],
      "name": "institutions",
      "outputs": [
        {
          "internalType": "string",
          "name": "name",
          "type": "string"
        },
        {
          "internalType": "enum InstitutionRegistry.Role",
          "name": "role",
          "type": "uint8"
        },
        {
          "internalType": "bool",
          "name": "active",
          "type": "bool"
        },
        {
          "internalType": "uint256",
          "name": "joinedAt",
          "type": "uint256"
        }
      ],
      "stateMutability": "view",
      "type": "function"
    },
    {
      "inputs": [
        {
          "internalType": "address",
          "name": "addr",
          "type": "address"
        }
      ],
      "name": "isIssuer",
      "outputs": [
        {
          "internalType": "bool",
          "name": "",
          "type": "bool"
        }
      ],
      "stateMutability": "view",
      "type": "function"
    },
    {
      "inputs": [
        {
          "internalType": "address",
          "name": "addr",
          "type": "address"
        }
      ],
      "name": "isVerifier",
      "outputs": [
        {
          "internalType": "bool",
          "name": "",
          "type": "bool"
        }
      ],
      "stateMutability": "view",
      "type": "function"
    }
  ],
  "bytecode": "0x608060405234801561001057600080fd5b50336000806101000a81548173ffffffffffffffffffffffffffffffffffffffff021916908373ffffffffffffffffffffffffffffffffffffffff160217905550611444806100606000396000f3fe608060405234801561001057600080fd5b50600436106100885760003560e01c8063877b9a671161005b578063877b9a6714610113578063b2d9767f14610143578063ebc26ac814610176578063f851a440146101a657610088565b8063331052181461008d5780633ea053eb146100bd57806353ed5143146100d957806378d5e6cc146100f7575b600080fd5b6100a760048036038101906100a29190610b8b565b6101c4565b6040516100b49190610bd3565b60405180910390f35b6100d760048036038101906100d29190610b8b565b610378565b005b6100e16104a7565b6040516100ee9190610cac565b60405180910390f35b610111600480360381019061010c9190610d58565b610535565b005b61012d60048036038101906101289190610b8b565b61083a565b60405161013a9190610bd3565b60405180910390f35b61015d60048036038101906101589190610b8b565b6109ee565b60405161016d9493929190610eec565b60405180910390f35b610190600480360381019061018b9190610f64565b610ac0565b60405161019d9190610fa0565b60405180910390f35b6101ae610aff565b6040516101bb9190610fa0565b60405180910390f35b600080600160008473ffffffffffffffffffffffffffffffffffffffff1673ffffffffffffffffffffffffffffffffffffffff16815260200190815260200160002060405180608001604052908160008201805461022190610fea565b80601f016020809104026020016040519081016040528092919081815260200182805461024d90610fea565b801561029a5780601f1061026f5761010080835404028352916020019161029a565b820191906000526020600020905b81548152906001019060200180831161027d57829003601f168201915b505050505081526020016001820160009054906101000a900460ff1660038111156102c8576102c7610e5c565b5b60038111156102da576102d9610e5c565b5b81526020016001820160019054906101000a900460ff1615151515815260200160028201548152505090508060400151801561037057506002600381111561032557610324610e5c565b5b8160200151600381111561033c5761033b610e5c565b5b148061036f575060038081111561035657610355610e5c565b5b8160200151600381111561036d5761036c610e5c565b5b145b5b915050919050565b60008054906101000a900473ffffffffffffffffffffffffffffffffffffffff1673ffffffffffffffffffffffffffffffffffffffff163373ffffffffffffffffffffffffffffffffffffffff1614610406576040517f08c379a00000000000000000000000000000000000000000000000000000000081526004016103fd90611067565b60405180910390fd5b6000600160008373ffffffffffffffffffffffffffffffffffffffff1673ffffffffffffffffffffffffffffffffffffffff16815260200190815260200160002060010160016101000a81548160ff0219169083151502179055508073ffffffffffffffffffffffffffffffffffffffff167f805426965bf84411d1252c51430c8a578c088f2ee694e93ac6ac88104fb1dae460405160405180910390a250565b6060600280548060200260200160405190810160405280929190818152602001828054801561052b57602002820191906000526020600020905b8160009054906101000a900473ffffffffffffffffffffffffffffffffffffffff1673ffffffffffffffffffffffffffffffffffffffff16815260200190600101908083116104e1575b5050505050905090565b60008054906101000a900473ffffffffffffffffffffffffffffffffffffffff1673ffffffffffffffffffffffffffffffffffffffff163373ffffffffffffffffffffffffffffffffffffffff16146105c3576040517f08c379a00000000000000000000000000000000000000000000000000000000081526004016105ba90611067565b60405180910390fd5b600160008573ffffffffffffffffffffffffffffffffffffffff1673ffffffffffffffffffffffffffffffffffffffff16815260200190815260200160002060010160019054906101000a900460ff1615610653576040517f08c379a000000000000000000000000000000000000000000000000000000000815260040161064a906110d3565b60405180910390fd5b604051806080016040528084848080601f016020809104026020016040519081016040528093929190818152602001838380828437600081840152601f19601f8201169050808301925050505050505081526020018260038111156106bb576106ba610e5c565b5b815260200160011515815260200142815250600160008673ffffffffffffffffffffffffffffffffffffffff1673ffffffffffffffffffffffffffffffffffffffff168152602001908152602001600020600082015181600001908161072191906112ce565b5060208201518160010160006101000a81548160ff0219169083600381111561074d5761074c610e5c565b5b021790555060408201518160010160016101000a81548160ff021916908315150217905550606082015181600201559050506002849080600181540180825580915050600190039060005260206000200160009091909190916101000a81548173ffffffffffffffffffffffffffffffffffffffff021916908373ffffffffffffffffffffffffffffffffffffffff1602179055508373ffffffffffffffffffffffffffffffffffffffff167fa57d7a4072db27c5901c0aade97b8427d18e04a02e93c8d582480d6f4300969484848460405161082c939291906113dc565b60405180910390a250505050565b600080600160008473ffffffffffffffffffffffffffffffffffffffff1673ffffffffffffffffffffffffffffffffffffffff16815260200190815260200160002060405180608001604052908160008201805461089790610fea565b80601f01602080910402602001604051908101604052809291908181526020018280546108c390610fea565b80156109105780601f106108e557610100808354040283529160200191610910565b820191906000526020600020905b8154815290600101906020018083116108f357829003601f168201915b505050505081526020016001820160009054906101000a900460ff16600381111561093e5761093d610e5c565b5b60038111156109505761094f610e5c565b5b81526020016001820160019054906101000a900460ff161515151581526020016002820154815250509050806040015180156109e657506001600381111561099b5761099a610e5c565b5b816020015160038111156109b2576109b1610e5c565b5b14806109e557506003808111156109cc576109cb610e5c565b5b816020015160038111156109e3576109e2610e5c565b5b145b5b915050919050565b6001602052806000526040600020600091509050806000018054610a1190610fea565b80601f0160208091040260200160405190810160405280929190818152602001828054610a3d90610fea565b8015610a8a5780601f10610a5f57610100808354040283529160200191610a8a565b820191906000526020600020905b815481529060010190602001808311610a6d57829003601f168201915b5050505050908060010160009054906101000a900460ff16908060010160019054906101000a900460ff16908060020154905084565b60028181548110610ad057600080fd5b906000526020600020016000915054906101000a900473ffffffffffffffffffffffffffffffffffffffff1681565b60008054906101000a900473ffffffffffffffffffffffffffffffffffffffff1681565b600080fd5b600080fd5b600073ffffffffffffffffffffffffffffffffffffffff82169050919050565b6000610b5882610b2d565b9050919050565b610b6881610b4d565b8114610b7357600080fd5b50565b600081359050610b8581610b5f565b92915050565b600060208284031215610ba157610ba0610b23565b5b6000610baf84828501610b76565b91505092915050565b60008115159050919050565b610bcd81610bb8565b82525050565b6000602082019050610be86000830184610bc4565b92915050565b600081519050919050565b600082825260208201905092915050565b6000819050602082019050919050565b610c2381610b4d565b82525050565b6000610c358383610c1a565b60208301905092915050565b6000602082019050919050565b6000610c5982610bee565b610c638185610bf9565b9350610c6e83610c0a565b8060005b83811015610c9f578151610c868882610c29565b9750610c9183610c41565b925050600181019050610c72565b5085935050505092915050565b60006020820190508181036000830152610cc68184610c4e565b905092915050565b600080fd5b600080fd5b600080fd5b60008083601f840112610cf357610cf2610cce565b5b8235905067ffffffffffffffff811115610d1057610d0f610cd3565b5b602083019150836001820283011115610d2c57610d2b610cd8565b5b9250929050565b60048110610d4057600080fd5b50565b600081359050610d5281610d33565b92915050565b60008060008060608587031215610d7257610d71610b23565b5b6000610d8087828801610b76565b945050602085013567ffffffffffffffff811115610da157610da0610b28565b5b610dad87828801610cdd565b93509350506040610dc087828801610d43565b91505092959194509250565b600081519050919050565b600082825260208201905092915050565b60005b83811015610e06578082015181840152602081019050610deb565b60008484015250505050565b6000601f19601f8301169050919050565b6000610e2e82610dcc565b610e388185610dd7565b9350610e48818560208601610de8565b610e5181610e12565b840191505092915050565b7f4e487b7100000000000000000000000000000000000000000000000000000000600052602160045260246000fd5b60048110610e9c57610e9b610e5c565b5b50565b6000819050610ead82610e8b565b919050565b6000610ebd82610e9f565b9050919050565b610ecd81610eb2565b82525050565b6000819050919050565b610ee681610ed3565b82525050565b60006080820190508181036000830152610f068187610e23565b9050610f156020830186610ec4565b610f226040830185610bc4565b610f2f6060830184610edd565b95945050505050565b610f4181610ed3565b8114610f4c57600080fd5b50565b600081359050610f5e81610f38565b92915050565b600060208284031215610f7a57610f79610b23565b5b6000610f8884828501610f4f565b91505092915050565b610f9a81610b4d565b82525050565b6000602082019050610fb56000830184610f91565b92915050565b7f4e487b7100000000000000000000000000000000000000000000000000000000600052602260045260246000fd5b6000600282049050600182168061100257607f821691505b60208210810361101557611014610fbb565b5b50919050565b7f4e6f742061646d696e0000000000000000000000000000000000000000000000600082015250565b6000611051600983610dd7565b915061105c8261101b565b602082019050919050565b6000602082019050818103600083015261108081611044565b9050919050565b7f416c726561647920726567697374657265640000000000000000000000000000600082015250565b60006110bd601283610dd7565b91506110c882611087565b602082019050919050565b600060208201905081810360008301526110ec816110b0565b9050919050565b7f4e487b7100000000000000000000000000000000000000000000000000000000600052604160045260246000fd5b60008190508160005260206000209050919050565b60006020601f8301049050919050565b600082821b905092915050565b6000600883026111847fffffffffffffffffffffffffffffffffffffffffffffffffffffffffffffffff82611147565b61118e8683611147565b95508019841693508086168417925050509392505050565b6000819050919050565b60006111cb6111c66111c184610ed3565b6111a6565b610ed3565b9050919050565b6000819050919050565b6111e5836111b0565b6111f96111f1826111d2565b848454611154565b825550505050565b600090565b61120e611201565b6112198184846111dc565b505050565b5b8181101561123d57611232600082611206565b60018101905061121f565b5050565b601f8211156112825761125381611122565b61125c84611137565b8101602085101561126b578190505b61127f61127785611137565b83018261121e565b50505b505050565b600082821c905092915050565b60006112a560001984600802611287565b1980831691505092915050565b60006112be8383611294565b9150826002028217905092915050565b6112d782610dcc565b67ffffffffffffffff8111156112f0576112ef6110f3565b5b6112fa8254610fea565b611305828285611241565b600060209050601f8311600181146113385760008415611326578287015190505b61133085826112b2565b865550611398565b601f19841661134686611122565b60005b8281101561136e57848901518255600182019150602085019450602081019050611349565b8683101561138b5784890151611387601f891682611294565b8355505b6001600288020188555050505b505050505050565b82818337600083830152505050565b60006113bb8385610dd7565b93506113c88385846113a0565b6113d183610e12565b840190509392505050565b600060408201905081810360008301526113f78185876113af565b90506114066020830184610ec4565b94935050505056fea26469706673582212200319d55510cab7f01e5e64f51110eee14ad6d8636827ef8a9bfa35408a4acddf64736f6c63430008180033",
  "linkReferences": {},
  "deployedLinkReferences": {}
}